:100000000C9434000C9451000C9451000C94510049
:100010000C9451000C9451000C9451000C9451001C
:100020000C9451000C9451000C9451000C948300DA
:100030000C9451000C9451000C9451000C945100FC
:100040000C9451000C9451000C9451000C945100EC
:100050000C9451000C9451000C9451000C945100DC
:100060000C9451000C94510011241FBECFEFD8E026
:10007000DEBFCDBF11E0A0E0B1E0E8E9F9E202C0E7
:1000800005900D92A83BB107D9F714E0A8EBB1E0B9
:1000900001C01D92A034B107E1F70E9453000C94F7
:1000A000CA140C940000DF93CF93CDB7DEB70E9443
:1000B00085050E94530A0E94B51181E890E021E86D
:1000C00030E0F90120812860FC0120838FE690E078
:1000D00022E0FC012083789488E890E028EC30E06E
:1000E000FC013183208381E890E021E830E0F901D0
:1000F00020812160FC0120830E941A0C0E94640C64
:100100000E940712FBCF1F920F920FB60F9211247D
:100110002F933F934F935F936F937F938F939F930F
:10012000AF93BF93EF93FF93DF93CF93CDB7DEB73A
:100130000E94760A0E948106CF91DF91FF91EF9194
:10014000BF91AF919F918F917F916F915F914F91EF
:100150003F912F910F900FBE0F901F901895DF9336
:10016000CF93CDB7DEB728970FB6F894DEBF0FBE9A
:10017000CDBF98878F838DEA93E09E838D831A820B
:10018000198214C01C821B8205C08B819C81019640
:100190009C838B832B813C818D819E81281739071D
:1001A000A0F389819A8101969A83898329813A8172
:1001B0008F8198852817390728F328960FB6F89469
:1001C000DEBF0FBECDBFCF91DF910895DF93CF93F8
:1001D000CDB7DEB784E290E024E230E0F90120817F
:1001E0002C60FC01208385E290E025E230E0F901FB
:1001F00020812460FC0120838AE290E02AE230E042
:10020000F90120812460FC0120838BE290E02BE245
:1002100030E0F90120812460FC0120838AE290E033
:100220002AE230E0F90120812860FC0120838BE282
:1002300090E02BE230E0F90120812860FC0120836E
:100240008AE290E02AE230E0F90120812061FC019D
:1002500020838BE290E02BE230E0F90120812061E5
:10026000FC0120838AE290E02AE230E0F90120815B
:100270002062FC0120838BE290E02BE230E0F90168
:1002800020812062FC0120838AE290E02AE230E0B3
:10029000F90120812064FC0120838BE290E02BE2B5
:1002A00030E0F90120812064FC0120838AE290E0A3
:1002B0002AE230E0F90120812068FC0120838BE2F2
:1002C00090E02BE230E0F90120812068FC012083DE
:1002D00084E290E024E230E0F90120812160FC0119
:1002E000208385E290E025E230E0F9012081216061
:1002F000FC01208384E290E024E230E0F9012081D7
:100300002061FC01208385E290E025E230E0F901E4
:1003100020812061FC012083CF91DF910895DF933C
:10032000CF9300D000D0CDB7DEB79C838B83809174
:10033000B8018F3031F08091B8018F5F8093B801A0
:10034000DDC38091B8018F5F8093B8011982D2C359
:100350008CE490E020E5FC0120838EE490E02B818A
:100360003C81205C3D4FF9012081FC01208300008D
:100370008DE490E0FC0180818823D4F71A82898182
:10038000882F90E0880F991F880F991F880F991F59
:100390009C01295F3F4F4B815C81C901880F991FE8
:1003A000820F931F840F951FFC018081882319F011
:1003B0008A8180688A838981882F90E0880F991FBD
:1003C000880F991F880F991F9C012A5F3F4F4B810F
:1003D0005C81C901880F991F820F931F840F951F9D
:1003E000FC018081882319F08A8180648A83898155
:1003F000882F90E0880F991F880F991F880F991FE9
:100400009C012B5F3F4F4B815C81C901880F991F75
:10041000820F931F840F951FFC018081882319F0A0
:100420008A8180628A838981882F90E0880F991F52
:10043000880F991F880F991F9C012C5F3F4F4B819C
:100440005C81C901880F991F820F931F840F951F2C
:10045000FC018081882319F08A8180618A838981E7
:10046000882F90E0880F991F880F991F880F991F78
:100470009C012D5F3F4F4B815C81C901880F991F03
:10048000820F931F840F951FFC018081882319F030
:100490008A8188608A838981882F90E0880F991FDC
:1004A000880F991F880F991F9C012E5F3F4F4B812A
:1004B0005C81C901880F991F820F931F840F951FBC
:1004C000FC018081882319F08A8184608A83898174
:1004D000882F90E0880F991F880F991F880F991F08
:1004E0009C012F5F3F4F4B815C81C901880F991F91
:1004F000820F931F840F951FFC018081882319F0C0
:100500008A8182608A838981882F90E09C01220FF2
:10051000331F220F331F220F331F4B815C81C90110
:10052000880F991F820F931F840F951FFC018081F4
:10053000882319F08A8181608A838EE490E02A8181
:10054000FC01208300008DE490E0FC018081882381
:10055000D4F71A828981882F90E0880F991F880F1D
:10056000991F880F991F9C01295F3F4F4B815C8128
:10057000C901880F991F820F931F840F951F019641
:10058000FC018081882319F08A8180688A838981AF
:10059000882F90E0880F991F880F991F880F991F47
:1005A0009C012A5F3F4F4B815C81C901880F991FD5
:1005B000820F931F840F951F0196FC018081882371
:1005C00019F08A8180648A838981882F90E0880F5E
:1005D000991F880F991F880F991F9C012B5F3F4F10
:1005E0004B815C81C901880F991F820F931F840F73
:1005F000951F0196FC018081882319F08A81806211
:100600008A838981882F90E0880F991F880F991F0E
:10061000880F991F9C012C5F3F4F4B815C81C90162
:10062000880F991F820F931F840F951F0196FC015D
:100630008081882319F08A8180618A838981882F4B
:1006400090E0880F991F880F991F880F991F9C01B0
:100650002D5F3F4F4B815C81C901880F991F820F2D
:10066000931F840F951F0196FC018081882319F048
:100670008A8188608A838981882F90E0880F991FFA
:10068000880F991F880F991F9C012E5F3F4F4B8148
:100690005C81C901880F991F820F931F840F951FDA
:1006A0000196FC018081882319F08A8184608A8305
:1006B0008981882F90E0880F991F880F991F880FD4
:1006C000991F9C012F5F3F4F4B815C81C901880FAF
:1006D000991F820F931F840F951F0196FC01808143
:1006E000882319F08A8182608A838981882F90E02B
:1006F0009C01220F331F220F331F220F331F4B8108
:100700005C81C901880F991F820F931F840F951F69
:100710000196FC018081882319F08A8181608A8397
:100720008EE490E02A81FC01208300008DE490E0BB
:10073000FC0180818823D4F71A828981882F90E078
:10074000880F991F880F991F880F991F9C01295F97
:100750003F4F4B815C81C901880F991F820F931F06
:10076000840F951F0296FC018081882319F08A81ED
:1007700080688A838981882F90E0880F991F880F6D
:10078000991F880F991F9C012A5F3F4F4B815C8105
:10079000C901880F991F820F931F840F951F02961E
:1007A000FC018081882319F08A8180648A83898191
:1007B000882F90E0880F991F880F991F880F991F25
:1007C0009C012B5F3F4F4B815C81C901880F991FB2
:1007D000820F931F840F951F0296FC01808188234E
:1007E00019F08A8180628A838981882F90E0880F3E
:1007F000991F880F991F880F991F9C012C5F3F4FED
:100800004B815C81C901880F991F820F931F840F50
:10081000951F0296FC018081882319F08A818061EE
:100820008A838981882F90E0880F991F880F991FEC
:10083000880F991F9C012D5F3F4F4B815C81C9013F
:10084000880F991F820F931F840F951F0296FC013A
:100850008081882319F08A8188608A838981882F22
:1008600090E0880F991F880F991F880F991F9C018E
:100870002E5F3F4F4B815C81C901880F991F820F0A
:10088000931F840F951F0296FC018081882319F025
:100890008A8184608A838981882F90E0880F991FDC
:1008A000880F991F880F991F9C012F5F3F4F4B8125
:1008B0005C81C901880F991F820F931F840F951FB8
:1008C0000296FC018081882319F08A8182608A83E4
:1008D0008981882F90E09C01220F331F220F331F44
:1008E000220F331F4B815C81C901880F991F820F32
:1008F000931F840F951F0296FC018081882319F0B5
:100900008A8181608A838EE490E02A81FC012083C1
:1009100000008DE490E0FC0180818823D4F78CE412
:1009200090E0FC01108285E290E025E230E0F901E0
:1009300020812460FC0120838981882351F48BE28B
:1009400090E02BE230E0F90120812B7FFC01208335
:100950005AC08981813051F48BE290E02BE230E083
:10096000F9012081277FFC0120834DC089818230DD
:1009700051F48BE290E02BE230E0F90120812F7EF0
:10098000FC01208340C08981833051F48BE290E0E8
:100990002BE230E0F90120812F7DFC01208333C060
:1009A0008981843051F48BE290E02BE230E0F90150
:1009B00020812F7BFC01208326C08981853051F462
:1009C0008BE290E02BE230E0F90120812F77FC01EF
:1009D000208319C08981863051F485E290E025E2B8
:1009E00030E0F90120812E7FFC0120830CC0898139
:1009F000873049F485E290E025E230E0F90120817A
:100A00002F7EFC01208381E090E00E94AF0089816D
:100A1000882351F48BE290E02BE230E0F901208151
:100A20002460FC0120835AC08981813051F48BE21B
:100A300090E02BE230E0F90120812860FC01208366
:100A40004DC08981823051F48BE290E02BE230E09E
:100A5000F90120812061FC01208340C0898183301D
:100A600051F48BE290E02BE230E0F901208120622A
:100A7000FC01208333C08981843051F48BE290E003
:100A80002BE230E0F90120812064FC01208326C0A4
:100A90008981853051F48BE290E02BE230E0F9015E
:100AA00020812068FC01208319C08981863051F49F
:100AB00085E290E025E230E0F90120812160FC012F
:100AC00020830CC08981873049F485E290E025E2DB
:100AD00030E0F90120812061FC01208385E290E073
:100AE00025E230E0F90120812B7FFC012083898100
:100AF0008F5F89838981883008F42ACC0F900F900A
:100B00000F900F90CF91DF910895DF93CF93CDB7E2
:100B1000DEB70E94E6000E948C06CF91DF91089517
:100B2000DF93CF9300D000D00F92CDB7DEB78C8388
:100B30006D838D81982F990F990F990F8C81890F53
:100B400089838981282F30E0C901880F991F820F7E
:100B5000931F87539E4F9B838A838A819B810F902B
:100B60000F900F900F900F90CF91DF910895DF932A
:100B7000CF9300D000D00F92CDB7DEB78A836B83BE
:100B80005D834C839A8180E0891B880F880F880FD2
:100B9000982F8B81292F281B822F815C8983898143
:100BA000282F332727FD30954C815D81CA01880F9E
:100BB000991F840F951F885E9E4FFC014081C901DB
:100BC000880F991F820F931F87539E4FFC0140830C
:100BD0008981282F332727FD30954C815D81CA01FB
:100BE000880F991F840F951F875E9E4FFC014081DF
:100BF000C901880F991F820F931F86539E4FFC01D6
:100C000040838981282F332727FD30954C815D81D2
:100C1000CA01880F991F840F951F865E9E4FFC01A5
:100C20004081C901880F991F820F931F85539E4FE2
:100C3000FC0140830F900F900F900F900F90CF9179
:100C4000DF910895DF93CF930F92CDB7DEB78983FD
:100C500080910904482F8981282F30E081E090E0BD
:100C6000022E02C0880F991F0A94E2F7842780930E
:100C700009040F90CF91DF910895DF93CF930F92E6
:100C8000CDB7DEB7898380910904482F8981282F49
:100C900030E081E090E0022E02C0880F991F0A9494
:100CA000E2F7842B809309040F90CF91DF91089590
:100CB000DF93CF930F92CDB7DEB78983809109047C
:100CC000482F8981282F30E081E090E0022E02C079
:100CD000880F991F0A94E2F7809584238093090472
:100CE0000F90CF91DF910895DF93CF930F92CDB7FF
:100CF000DEB789838981809309040F90CF91DF91BA
:100D00000895DF93CF93CDB7DEB789EC91E00E94D1
:100D10008F01CF91DF910895DF93CF9300D0CDB7AE
:100D2000DEB71A8219822CC04091180129813A81BC
:100D3000C901880F991F820F931F87539E4FFC0193
:100D400040834091190129813A81C901880F991F77
:100D5000820F931F86539E4FFC01408340911A01DE
:100D600029813A81C901880F991F820F931F8553EA
:100D70009E4FFC01408389819A8101969A838983E1
:100D800089819A81813491057CF20F900F90CF91E7
:100D9000DF9108950F931F93DF93CF93CDB7DEB705
:100DA00062970FB6F894DEBF0FBECDBF8D876E87FA
:100DB0004F87288B1A8B098B9F858D85292F281BA0
:100DC000822F8D8398898E85E92FE81B8E2F8E8345
:100DD00019828E81992787FD90952D81332727FDD4
:100DE0003095B9010E9489129B01C9018F838E81C0
:100DF000992787FD90952D81332727FD3095B901DF
:100E00000E94891288878D8188230CF48F5F8595D5
:100E100089878D858A838E858B838D81882309F0D0
:100E20006BC08E858C835BC09D8580E0891B880F9D
:100E3000880F880F982F8C81F92FF81B8F2F815CDA
:100E40008A878A85282F332727FD309549895A8933
:100E5000CA01880F991F840F951F885E9E4FFC0161
:100E60004081C901880F991F820F931F87539E4F9E
:100E7000FC0140838A85282F332727FD3095498937
:100E80005A89CA01880F991F840F951F875E9E4F4C
:100E9000FC014081C901880F991F820F931F86535F
:100EA0009E4FFC0140838A85282F332727FD3095EC
:100EB00049895A89CA01880F991F840F951F865E38
:100EC0009E4FFC014081C901880F991F820F931F1B
:100ED00085539E4FFC0140838C818F5F8C838C8176
:100EE000282F332727FD30958889882F90E0821797
:100EF00093070CF099CF0DC18F8182300CF483C021
:100F00008E858C8373C09C8180E0891B880F880F3D
:100F1000880F982F8B81F92FF81B8F2F815C8B877F
:100F20008B85282F332727FD309549895A89CA0197
:100F3000880F991F840F951F885E9E4FFC0140818A
:100F4000C901880F991F820F931F87539E4FFC0181
:100F500040838B85282F332727FD309549895A896F
:100F6000CA01880F991F840F951F875E9E4FFC0151
:100F70004081C901880F991F820F931F86539E4F8E
:100F8000FC0140838B85282F332727FD3095498925
:100F90005A89CA01880F991F840F951F865E9E4F3C
:100FA000FC014081C901880F991F820F931F85534F
:100FB0009E4FFC01408399818885890F89838985AB
:100FC000882321F48A818F5F8A830DC09981898566
:100FD00089174CF48A818F5F8A8399818D81F92FDB
:100FE000F81B8F2F89838C818F5F8C838C81282FB6
:100FF000332727FD30958889882F90E08217930743
:101000000CF081CF86C08F81882309F082C08D8546
:101010008C8373C09C8180E0891B880F880F880FA8
:10102000982F8B81292F281B822F815C8C878C85A0
:10103000282F332727FD309549895A89CA01880FFF
:10104000991F840F951F885E9E4FFC014081C90146
:10105000880F991F820F931F87539E4FFC01408377
:101060008C85282F332727FD309549895A89CA0155
:10107000880F991F840F951F875E9E4FFC0140814A
:10108000C901880F991F820F931F86539E4FFC0141
:1010900040838C85282F332727FD309549895A892D
:1010A000CA01880F991F840F951F865E9E4FFC0111
:1010B0004081C901880F991F820F931F85539E4F4E
:1010C000FC01408399818885890F898389858823DC
:1010D00021F48B818F5F8B830DC09981898589175E
:1010E0004CF48B818F5F8B8399818D81F92FF81B55
:1010F0008F2F89838C818F5F8C838C81282F33275E
:1011000027FD30958F85882F90E0821793070CF08C
:1011100081CF62960FB6F894DEBF0FBECDBFCF91E0
:10112000DF911F910F9108950F931F93DF93CF933A
:10113000CDB7DEB72A970FB6F894DEBF0FBECDBF8E
:101140008D836E834F8328871A8709878E818A83D0
:10115000F1C08D818983DCC09A818E81981781F0DE
:101160008A81282F30E08E81482F50E08885882F93
:1011700090E0840F951F01972817390709F059C08F
:10118000998180E0891B880F880F880F982F8A81AA
:10119000292F281B822F815C8C838C81282F332759
:1011A00027FD309549855A85CA01880F991F840FFC
:1011B000951F885E9E4FFC014081C901880F991FD1
:1011C000820F931F87539E4FFC0140838C81282FF1
:1011D000332727FD309549855A85CA01880F991F05
:1011E000840F951F875E9E4FFC014081C901880FC7
:1011F000991F820F931F86539E4FFC0140838C8161
:10120000282F332727FD309549855A85CA01880F35
:10121000991F840F951F865E9E4FFC014081C90176
:10122000880F991F820F931F85539E4FFC014083A7
:101230006CC099818D81981781F08981282F30E0C9
:101240008D81482F50E08F81882F90E0840F951F6B
:1012500001972817390709F058C0998180E0891B48
:10126000880F880F880F982F8A81F92FF81B8F2FEE
:10127000815C8B838B81282F332727FD309549850F
:101280005A85CA01880F991F840F951F885E9E4F4B
:10129000FC014081C901880F991F820F931F87535A
:1012A0009E4FFC0140838B81282F332727FD3095EB
:1012B00049855A85CA01880F991F840F951F875E3B
:1012C0009E4FFC014081C901880F991F820F931F17
:1012D00086539E4FFC0140838B81282F332727FDA7
:1012E000309549855A85CA01880F991F840F951F2B
:1012F000865E9E4FFC014081C901880F991F820FB5
:10130000931F85539E4FFC01408389818F5F8983A2
:101310008981282F30E08D81482F50E08F81882FE0
:1013200090E0840F951F281739070CF415CF8A8198
:101330008F5F8A838A81282F30E08E81482F50E08A
:101340008885882F90E0840F951F281739070CF4A3
:1013500000CF2A960FB6F894DEBF0FBECDBFCF9157
:10136000DF911F910F9108950F931F93DF93CF93F8
:10137000CDB7DEB729970FB6F894DEBF0FBECDBF4D
:101380008C836D834E832F83198708878D818A8391
:1013900070C08C8189835BC0998180E0891B880F34
:1013A000880F880F982F8A81292F281B822F815C14
:1013B0008B838B81282F332727FD309548855985CE
:1013C000CA01880F991F840F951F885E9E4FFC01EC
:1013D0004081C901880F991F820F931F87539E4F29
:1013E000FC0140838B81282F332727FD30954885CA
:1013F0005985CA01880F991F840F951F875E9E4FDC
:10140000FC014081C901880F991F820F931F8653E9
:101410009E4FFC0140838B81282F332727FD309579
:1014200048855985CA01880F991F840F951F865ECC
:101430009E4FFC014081C901880F991F820F931FA5
:1014400085539E4FFC01408389818F5F8983898109
:10145000282F30E08C81482F50E08E81882F90E03B
:10146000840F951F281739070CF496CF8A818F5F58
:101470008A838A81282F30E08D81482F50E08F8128
:10148000882F90E0840F951F281739070CF481CF1F
:1014900029960FB6F894DEBF0FBECDBFCF91DF9176
:1014A0001F910F910895DF93CF93CDB7DEB71092C0
:1014B0000C0410920B04CF91DF910895DF93CF932A
:1014C00000D0CDB7DEB79A83898320910B04309189
:1014D0000C0489819A818217930710F481E001C07E
:1014E00080E00F900F90CF91DF910895DF93CF931D
:1014F000CDB7DEB780910B0490910C0401969093C8
:101500000C0480930B04CF91DF910895DF93CF9368
:10151000CDB7DEB710920C0410920B04CF91DF917F
:101520000895DF93CF9300D00F92CDB7DEB78B83B2
:1015300084E090E00E94B0129A83898389819A8125
:101540002B81FC01208384E190E00E94B0129C0179
:1015500089819A81FC013283218389819A81FC01EE
:1015600013828B81882F90E0880F991F835F9B4F98
:1015700029813A81FC01318320830F900F900F90D5
:10158000CF91DF910895DF93CF9300D00F92CDB725
:10159000DEB78B838B81882F90E0880F991F835F44
:1015A0009B4FFC01808191819A83898389819A81F3
:1015B000FC0181819281FC0109950F900F900F90A1
:1015C000CF91DF910895DF93CF9300D000D00F9299
:1015D000CDB7DEB78B837D836C838B81882F90E0C2
:1015E000880F991F835F9B4FFC01808191819A83B3
:1015F000898389819A812C813D81FC0132832183F9
:1016000089819A81FC018381282F2F5F89819A81AA
:10161000FC0123830F900F900F900F900F90CF91AC
:10162000DF910895DF93CF93CDB7DEB784E290E0EA
:1016300024E230E0F90120812260FC012083CF9177
:10164000DF910895DF93CF93CDB7DEB785E290E0C9
:1016500025E230E0F90120812260FC012083CF9156
:10166000DF910895DF93CF93CDB7DEB785E290E0A9
:1016700025E230E0F90120812D7FFC012083CF910C
:10168000DF910895DF93CF93CDB7DEB70E94120BA1
:1016900081E08093370481E080933604109239040E
:1016A00010923804F89480E890E0FC01108281E800
:1016B00090E0FC01108288E890E02091380430919D
:1016C0003904220F331F205D3E4FF9012081318103
:1016D000FC013183208381E890E021E830E0F901CA
:1016E00020812860FC01208381E890E021E830E03F
:1016F000F90120812360FC0120838FE690E02FE632
:1017000030E0F90120812260FC0120837894CF91A0
:10171000DF910895DF93CF93CDB7DEB70E94120B10
:1017200081E08093370481E080933604109239047D
:1017300010923804CF91DF910895DF93CF93CDB706
:10174000DEB780913704882349F0809136048823DE
:1017500029F00E94220B109237040DC080913704AB
:10176000882349F480913604882329F00E94320BA3
:1017700081E080933704CF91DF910895DF93CF9379
:10178000CDB7DEB710923604CF91DF910895DF9385
:10179000CF93CDB7DEB781E080933604CF91DF9150
:1017A0000895DF93CF93CDB7DEB79091360481E0F3
:1017B000892780933604CF91DF910895DF93CF93EB
:1017C000CDB7DEB780913604CF91DF910895DF93D6
:1017D000CF9300D0CDB7DEB79A83898389819A8170
:1017E00090933904809338040F900F90CF91DF913C
:1017F0000895DF93CF93CDB7DEB7809138049091F1
:101800003904CF91DF910895DF93CF930F92CDB735
:10181000DEB789838981809335040F90CF91DF9162
:101820000895DF93CF93CDB7DEB780913504CF9184
:10183000DF910895DF93CF93CDB7DEB781E090E0DD
:101840009093BA018093B90184E08093BF0187E04F
:101850008093C0011092C1011092C20181E0809377
:10186000C30184E08093C40187E08093C5010E9496
:101870005D0E0E94640E0E94711129EF3CE084E02D
:10188000B9010E94E30A21E53DE085E0B9010E942B
:10189000E30A29EA3DE082E0B9010E94E30A23E07D
:1018A0003EE083E0B9010E94E30A2AE831E180E0EA
:1018B000B9010E94E30A2AE831E181E0B9010E94FE
:1018C000E30ACF91DF910895DF93CF93CDB7DEB7D1
:1018D0008091A401482F50E024EF31E0429FC001E5
:1018E000439F900D529F900D11240E945E0A882301
:1018F00021F48091C801882321F18091C6018823B9
:1019000001F58091A401843031F481E08093C70116
:1019100081E08093C6010E94160F0E94860A809182
:10192000A60181508093A6018091A601882329F405
:1019300082E38093A6010E94E60C0E94A40C109200
:10194000C801CF91DF910895DF93CF93CDB7DEB774
:101950008091C001282F30E08091BF01882F90E056
:10196000220F331F220F331F220F331F820F931FAB
:101970008C599E4FFC018081813029F58091C001F6
:101980008730A1F48091A501882331F40E948C0650
:1019900081E08093C60117C08091A501815080939A
:1019A000A5010E9471110E9462110DC08091C001B9
:1019B0008093C5018091C0018F5F8093C0010E9418
:1019C000640E0E945D0ECF91DF910895DF93CF9357
:1019D000CDB7DEB78091A40182508093A40180919D
:1019E000A401823019F481E08093C601CF91DF9188
:1019F0000895DF93CF93CDB7DEB78091BF018823E1
:101A000009F44CC08091C001282F30E08091BF01C3
:101A1000882F90E00197220F331F220F331F220FD0
:101A2000331F820F931F8C599E4FFC0180819AE0D7
:101A3000692F0E947D12892F882381F58091C00132
:101A4000282F30E08091BF01882F90E0220F331FB4
:101A5000220F331F220F331F820F931F8C599E4F6B
:101A6000FC0110828091BF0181508093BF01809161
:101A7000C001282F30E08091BF01882F90E0220F15
:101A8000331F220F331F220F331F820F931F8C59D6
:101A90009E4F22E0FC0120830E940B0FCF91DF912B
:101AA0000895DF93CF93CDB7DEB78091BF01873024
:101AB00008F04CC08091C001282F30E08091BF0118
:101AC000882F90E00196220F331F220F331F220F21
:101AD000331F820F931F8C599E4FFC0180819AE027
:101AE000692F0E947D12892F882381F58091C00182
:101AF000282F30E08091BF01882F90E0220F331F04
:101B0000220F331F220F331F820F931F8C599E4FBA
:101B1000FC0110828091BF018F5F8093BF01809193
:101B2000C001282F30E08091BF01882F90E0220F64
:101B3000331F220F331F220F331F820F931F8C5925
:101B40009E4F22E0FC0120830E940B0FCF91DF917A
:101B50000895DF93CF93CDB7DEB78091C00188237E
:101B600009F44EC08091C001882F90E09C01215063
:101B700030408091BF01882F90E0220F331F220F49
:101B8000331F220F331F820F931F8C599E4FFC016E
:101B900080819AE0692F0E947D12892F882381F528
:101BA0008091C001282F30E08091BF01882F90E004
:101BB000220F331F220F331F220F331F820F931F59
:101BC0008C599E4FFC0110828091C00181508093FE
:101BD000C0018091C001282F30E08091BF01882F83
:101BE00090E0220F331F220F331F220F331F820F6B
:101BF000931F8C599E4F22E0FC0120830E940B0F03
:101C0000CF91DF910895DF93CF93CDB7DEB7809169
:101C1000C001883008F04EC08091C001882F90E04C
:101C20009C012F5F3F4F8091BF01882F90E0220FD2
:101C3000331F220F331F220F331F820F931F8C5924
:101C40009E4FFC0180819AE0692F0E947D12892FAE
:101C5000882381F58091C001282F30E08091BF0159
:101C6000882F90E0220F331F220F331F220F331FC4
:101C7000820F931F8C599E4FFC0110828091C001EE
:101C80008F5F8093C0018091C001282F30E0809148
:101C9000BF01882F90E0220F331F220F331F220F26
:101CA000331F820F931F8C599E4F22E0FC0120832B
:101CB0000E940B0FCF91DF910895DF93CF93CDB7A3
:101CC000DEB7CF91DF910895DF93CF9300D0CDB7EA
:101CD000DEB71A8297C019828EC08A81282F30E021
:101CE0008981882F90E0220F331F220F331F220F8C
:101CF000331F820F931F8C599E4FFC0180818823D4
:101D000041F489819A81692F40E050E00E94B70533
:101D10006FC08A81282F30E08981882F90E0220FC0
:101D2000331F220F331F220F331F820F931F8C5933
:101D30009E4FFC018081813041F489819A81692F15
:101D400047E050E00E94B70553C08A81282F30E059
:101D50008981882F90E0220F331F220F331F220F1B
:101D6000331F820F931F8C599E4FFC01808182305C
:101D700041F489819A81692F41E050E00E94B705C2
:101D800037C08A81282F30E08981882F90E0220F88
:101D9000331F220F331F220F331F820F931F8C59C3
:101DA0009E4FFC018081843141F489819A81692FA1
:101DB00042E050E00E94B7051BC08A81282F30E026
:101DC0008981882F90E0220F331F220F331F220FAB
:101DD000331F820F931F8C599E4FFC0180818E31DF
:101DE00039F489819A81692F44E050E00E94B70557
:101DF00089818F5F89838981883008F46ECF8A81D9
:101E00008F5F8A838A81883008F465CF0F900F90A6
:101E1000CF91DF910895DF93CF93CDB7DEB70E94C6
:101E2000640E0E945D0ECF91DF9108950F931F9372
:101E3000DF93CF9300D000D00F92CDB7DEB787E00D
:101E40008983E3C08981882F90E02981222F30E0A7
:101E500021503040220F331F220F331F220F331F18
:101E60002C593E4FF9012081880F991F880F991F27
:101E7000880F991F8C599E4FFC0120838981882FE0
:101E800090E02981222F30E021503040220F331F73
:101E9000220F331F220F331F2B593E4FF901208190
:101EA000880F991F880F991F880F991F8B599E4F74
:101EB000FC0120838981882F90E02981222F30E046
:101EC00021503040220F331F220F331F220F331FA8
:101ED0002A593E4FF9012081880F991F880F991FB9
:101EE000880F991F8A599E4FFC0120838981882F72
:101EF00090E02981222F30E021503040220F331F03
:101F0000220F331F220F331F29593E4FF901208121
:101F1000880F991F880F991F880F991F89599E4F05
:101F2000FC0120838981882F90E02981222F30E0D5
:101F300021503040220F331F220F331F220F331F37
:101F400028593E4FF9012081880F991F880F991F4A
:101F5000880F991F88599E4FFC0120838981882F03
:101F600090E02981222F30E021503040220F331F92
:101F7000220F331F220F331F27593E4FF9012081B3
:101F8000880F991F880F991F880F991F87599E4F97
:101F9000FC0120838981882F90E02981222F30E065
:101FA00021503040220F331F220F331F220F331FC7
:101FB00026593E4FF9012081880F991F880F991FDC
:101FC000880F991F86599E4FFC0120838981882F95
:101FD00090E02981222F30E021503040220F331F22
:101FE000220F331F220F331F25593E4FF901208145
:101FF000880F991F880F991F880F991F85599E4F29
:10200000FC0120838981815089838981882309F09B
:1020100019CF8091C7018130C9F48EE180936401AA
:102020008EE1809365018EE1809366018EE180935D
:1020300067018EE1809368018EE1809369018EE1F2
:1020400080936A018EE180936B01EAC08091A601C2
:102050008130C9F484E18093640184E18093650157
:1020600084E18093660184E18093670184E1809339
:10207000680184E18093690184E180936A0184E1CD
:1020800080936B01CDC080910B0490910C040E9451
:102090002C141A82C1C08A81882F90E0019784593C
:1020A0009E4FFC0180818B838A81882F90E0845928
:1020B0009E4FFC0180818C838A81882F90E001965D
:1020C00084599E4FFC0180818D838B81813071F416
:1020D0008D81813059F48C81882341F48A81882F45
:1020E00090E08C599E4FFC01108293C08B81882315
:1020F000B9F48D818823A1F48C81813089F48A819F
:10210000082F10E00E94271422E030E0B9010E945D
:102110008912282FC8018C599E4FFC01208379C059
:102120008B81813019F48D81882331F08B81882354
:1021300061F58D81813049F58C81882319F08C817E
:10214000813019F58A81882F90E001978C599E4F34
:10215000FC018081882389F48A81082F10E00E9485
:10216000271422E030E0B9010E948912282FC8010B
:102170008C599E4FFC0120834CC08A81882F90E0AF
:102180008C599E4FFC01108244C08B818823B9F486
:102190008D818823A1F48C81882389F48A81082F7A
:1021A00010E00E94271422E030E0B9010E94891259
:1021B000282FC8018C599E4FFC0120832AC08B8197
:1021C0008130B9F48D818130A1F48C81813089F422
:1021D0008A81082F10E00E94271422E030E0B90124
:1021E0000E948912282FC8018C599E4FFC01208320
:1021F00010C08A81082F10E00E94271422E030E0EE
:10220000B9010E948912282FC8018C599E4FFC01E8
:1022100020838A818F5F8A838A81883008F43BCF4C
:102220008091C001282F30E08091BF01882F90E07D
:10223000220F331F220F331F220F331F820F931FD2
:102240008C599E4FFC018081813081F18091C001C9
:102250008730B8F48091C001882F90E09C012F5FF7
:102260003F4F8091BF01882F90E0220F331F220F34
:10227000331F220F331F820F931F8C599E4FFC0177
:1022800010828091C001282F30E08091BF01882FFB
:1022900090E0220F331F220F331F220F331F820FB4
:1022A000931F8C599E4F22E0FC0120830E940B0F4C
:1022B0000F900F900F900F900F90CF91DF911F9183
:1022C0000F910895DF93CF93CDB7DEB784E080936D
:1022D000BF0187E08093C0010E940B0FCF91DF9177
:1022E0000895DF93CF930F92CDB7DEB780E00E94C1
:1022F0007406198206C089810E943D0689818F5F1C
:1023000089838091A50199819817A8F30F90CF91A7
:10231000DF910895DF93CF93CDB7DEB781E080934F
:10232000C801CF91DF910895DF93CF93CDB7DEB78A
:1023300088E290E02FEFFC01208387E290E0FC012F
:102340001082CF91DF910895DF93CF930F92CDB795
:10235000DEB786E290E0FC018081898389818095E7
:102360008F730F90CF91DF910895DF93CF93CDB707
:10237000DEB70E94941110923B0410923A0482E05E
:102380000E94910A83E00E94910A85E00E94910ACE
:1023900084E00E94910A80E00E94910A81E00E94FC
:1023A000910ACF91DF910895DF93CF9300D000D0B1
:1023B000CDB7DEB79C838B838B819C8189559E4FE3
:1023C000FC01908180913B048923882319F01A82B3
:1023D000198214C08B819C8189559E4FFC0190818C
:1023E00080913A048923882329F081E090E09A8340
:1023F000898304C082E090E09A83898389819A81ED
:102400000F900F900F900F90CF91DF910895DF9371
:10241000CF9300D0CDB7DEB70E94A4118A83198272
:102420004EC08981882F90E089559E4FFC01908194
:1024300080913B0489238823D1F08981882F90E003
:1024400089559E4FFC0190818A818923882379F4E4
:102450008981882F90E089559E4FFC019081809161
:102460003A04892B80933A0489810E94C30A8981A6
:10247000882F90E089559E4FFC0190818A818923A5
:102480008823D1F08981882F90E089559E4FFC01E7
:10249000908180913A048923882371F08981882F63
:1024A00090E089559E4FFC018081982F90958091F6
:1024B0003A04892380933A0489818F5F89838981D3
:1024C000863008F4AECF8A8180933B040F900F9042
:1024D000CF91DF910895DF93CF93CDB7DEB7809191
:1024E0003B04CF91DF910895DF93CF93CDB7DEB753
:1024F00080913A04CF91DF910895991B79E004C04F
:10250000991F961708F0961B881F7A95C9F7809532
:10251000089597FB092E07260AD077FD04D00CD02A
:1025200006D000201AF4709561957F4F0895F6F754
:10253000909581959F4F0895AA1BBB1B51E107C041
:10254000AA1FBB1FA617B70710F0A61BB70B881F43
:10255000991F5A95A9F780959095BC01CD010895D2
:10256000CF93DF938230910510F482E090E0E09108
:102570003E04F0913F0440E050E020E030E026C00F
:102580006081718168177907E0F06817790781F435
:10259000828193812115310531F0D90113969C93E5
:1025A0008E9312972BC090933F0480933E0426C0D5
:1025B0004115510519F06417750718F4AB01E901CD
:1025C000DF019F0172816381E72FF62F3097C1F6FB
:1025D0004115510501F1481B590B4430510580F458
:1025E00012968D919C911397209719F09B838A8363
:1025F00004C090933F0480933E04FD01329646C090
:10260000FD01E40FF51F81939193425050401196C4
:102610005C934E933BC020913C0430913D042115C6
:10262000310541F42091AF013091B00130933D0468
:1026300020933C042091B1013091B2012115310564
:1026400041F42DB73EB74091AD015091AE01241B2E
:10265000350BE0913C04F0913D04E217F307A0F440
:102660002E1B3F0B2817390778F0AC014E5F5F4FE8
:102670002417350748F04E0F5F1F50933D044093D9
:102680003C048193919302C0E0E0F0E0CF01DF9140
:10269000CF910895CF93DF93009709F491C0FC0187
:1026A00032971382128260913E0470913F0461154B
:1026B000710581F420813181280F391F80913C04FC
:1026C00090913D048217930799F5F0933D04E093B0
:1026D0003C0476C0DB0180E090E002C0CD01D9016E
:1026E000AE17BF0748F412962D913C911397211510
:1026F0003105A1F7CD0121C0B383A283EF01499138
:1027000059919E01240F351FA217B30779F42D911B
:102710003C911197240F351F2E5F3F4F318320834B
:1027200012962D913C91139733832283009729F4BD
:10273000F0933F04E0933E0443C0DC011396FC9306
:10274000EE9312974D915D91A40FB51FEA17FB0709
:1027500069F420813181240F351F2E5F3F4FEC013A
:1027600039832883228133813B832A83E0E0F0E0B0
:1027700002C0FB01BC01DB0112968D919C91139765
:102780000097B9F79B012E5F3F4F8D919C91119758
:10279000820F931F40913C0450913D044817590704
:1027A00079F4309729F410923F0410923E0402C04D
:1027B000138212822250304030933D0420933C0417
:1027C000DF91CF910895A0E0B0E0E9EEF3E10C9441
:1027D0007914EC01688179818A819B816115710589
:1027E0008105910521F464E279ED8BE597E02DE117
:1027F00033EF41E050E00E94561479018A0127EA44
:1028000031E440E050E00E9437145B016C01C801E4
:10281000B7012CEE34EF4FEF5FEF0E9437146A0DD3
:102820007B1D8C1D9D1D97FF04C061507040804032
:102830009048688379838A839B837F77CB01CDB768
:10284000DEB7EAE00C9495140E94E313089583EB3D
:1028500091E00E94E3130895A0E0B0E08093B301FB
:102860009093B401A093B501B093B6010895629F0F
:10287000D001739FF001829FE00DF11D649FE00D78
:10288000F11D929FF00D839FF00D749FF00D659FD9
:10289000F00D9927729FB00DE11DF91F639FB00DD8
:1028A000E11DF91FBD01CF011124089597FB092EE9
:1028B00005260ED057FD04D04BD00AD0001C38F4AA
:1028C00050954095309521953F4F4F4F5F4F08955C
:1028D000F6F790958095709561957F4F8F4F9F4F3C
:1028E00008952F923F924F925F926F927F928F92B4
:1028F0009F92AF92BF92CF92DF92EF92FF920F938F
:102900001F93CF93DF93CDB7DEB7CA1BDB0B0FB698
:10291000F894DEBF0FBECDBF09942A883988488855
:102920005F846E847D848C849B84AA84B984C884EB
:10293000DF80EE80FD800C811B81AA81B981CE0FE2
:10294000D11D0FB6F894DEBF0FBECDBFED010895C7
:10295000A1E21A2EAA1BBB1BFD010DC0AA1FBB1FA3
:10296000EE1FFF1FA217B307E407F50720F0A21B15
:10297000B30BE40BF50B661F771F881F991F1A9482
:1029800069F760957095809590959B01AC01BD01AC
:08299000CF010895F894FFCF78
:102998000000000100000001000000010101000129
:1029A8000001000101010101000000010000000117
:1029B8000000000101010001000100010101010105
:1029C80006011501260137014A015D0172018801DE
:1029D8009F01B801D201EE010000010000000001D2
:1029E80000000001000000010101000100010001D8
:1029F80001010101010101000001010101010100C2
:102A080000010101010101000001010101010000B3
:102A180000000101010100000000010101000000A7
:102A2800000000010100000000000001010000009A
:102A3800020000012804320102040810202000408E
:082A4800040000010000000081
:00000001FF
