:100000000C9434000C9446000C9446000C9446006A
:100010000C9446000C9446000C9446000C94460048
:100020000C9446000C9446000C9446000C94460038
:100030000C9446000C9446000C9446000C94460028
:100040000C9446000C9446000C9446000C94460018
:100050000C9446000C9446000C9446000C94460008
:100060000C9446000C94460011241FBECFEFD8E03C
:10007000DEBFCDBF13E0A0E0B1E001C01D92A1340E
:10008000B107E1F70E9448000C9449060C94000067
:10009000DF93CF9300D0CDB7DEB70E9458051A8208
:1000A00019820E94B30589819A818436910549F4A9
:1000B00080E090E061E070E00E9494051A8219826D
:1000C000F0CF89819A8101969A838983EACFDF9361
:1000D000CF93CDB7DEB728970FB6F894DEBF0FBE2B
:1000E000CDBF98878F838DEA93E09E838D831A829C
:1000F000198214C01C821B8205C08B819C810196D1
:100100009C838B832B813C818D819E8128173907AD
:10011000A0F389819A8101969A83898329813A8102
:100120008F8198852817390728F328960FB6F894F9
:10013000DEBF0FBECDBFCF91DF910895DF93CF9388
:10014000CDB7DEB784E290E024E230E0F90120810F
:100150002C60FC01208385E290E025E230E0F9018B
:1001600020812460FC0120838AE290E02AE230E0D2
:10017000F90120812460FC0120838BE290E02BE2D6
:1001800030E0F90120812460FC0120838AE290E0C4
:100190002AE230E0F90120812860FC0120838BE213
:1001A00090E02BE230E0F90120812860FC012083FF
:1001B0008AE290E02AE230E0F90120812061FC012E
:1001C00020838BE290E02BE230E0F9012081206176
:1001D000FC0120838AE290E02AE230E0F9012081EC
:1001E0002062FC0120838BE290E02BE230E0F901F9
:1001F00020812062FC0120838AE290E02AE230E044
:10020000F90120812064FC0120838BE290E02BE245
:1002100030E0F90120812064FC0120838AE290E033
:100220002AE230E0F90120812068FC0120838BE282
:1002300090E02BE230E0F90120812068FC0120836E
:1002400084E290E024E230E0F90120812160FC01A9
:10025000208385E290E025E230E0F90120812160F1
:10026000FC01208384E290E024E230E0F901208167
:100270002061FC01208385E290E025E230E0F90175
:1002800020812061FC012083CF91DF910895DF93CD
:10029000CF9300D0CDB7DEB7198201C48CE490E0D3
:1002A00020E5FC0120838EE490E09E01295B3D4F18
:1002B000F9012081FC01208300008DE490E0FC0125
:1002C00080818823D4F71A828981882F90E0880F53
:1002D000991F880F991F880F991F9C01295F3F4F15
:1002E000C901880F991F820F931F27E030E02C0F60
:1002F0003D1F820F931FFC018081882319F08A81A2
:1003000080688A838981882F90E0880F991F880FE1
:10031000991F880F991F9C012A5F3F4FC901880FC1
:10032000991F820F931F27E030E02C0F3D1F820F93
:10033000931FFC018081882319F08A8180648A835D
:100340008981882F90E0880F991F880F991F880F47
:10035000991F9C012B5F3F4FC901880F991F820F86
:10036000931F27E030E02C0F3D1F820F931FFC01ED
:100370008081882319F08A8180628A838981882F0D
:1003800090E0880F991F880F991F880F991F9C0173
:100390002C5F3F4FC901880F991F820F931F27E0E1
:1003A00030E02C0F3D1F820F931FFC0180818823BA
:1003B00019F08A8180618A838981882F90E0880F73
:1003C000991F880F991F880F991F9C012D5F3F4F20
:1003D000C901880F991F820F931F27E030E02C0F6F
:1003E0003D1F820F931FFC018081882319F08A81B1
:1003F00088608A838981882F90E0880F991F880FF1
:10040000991F880F991F9C012E5F3F4FC901880FCC
:10041000991F820F931F27E030E02C0F3D1F820FA2
:10042000931FFC018081882319F08A8184608A836C
:100430008981882F90E0880F991F880F991F880F56
:10044000991F9C012F5F3F4FC901880F991F820F91
:10045000931F27E030E02C0F3D1F820F931FFC01FC
:100460008081882319F08A8182608A838981882F1C
:1004700090E09C01220F331F220F331F220F331FE6
:10048000C901880F991F820F931F27E030E02C0FBE
:100490003D1F820F931FFC018081882319F08A8100
:1004A00081608A838EE490E02A81FC012083000031
:1004B0008DE490E0FC0180818823D4F71A82898141
:1004C000882F90E0880F991F880F991F880F991F18
:1004D0009C01295F3F4FC901880F991F820F931F0D
:1004E00027E030E02C0F3D1F820F931F0196FC0187
:1004F0008081882319F08A8180688A838981882F86
:1005000090E0880F991F880F991F880F991F9C01F1
:100510002A5F3F4FC901880F991F820F931F27E061
:1005200030E02C0F3D1F820F931F0196FC0180814C
:10053000882319F08A8180648A838981882F90E0DA
:10054000880F991F880F991F880F991F9C012B5F97
:100550003F4FC901880F991F820F931F27E030E09A
:100560002C0F3D1F820F931F0196FC018081882371
:1005700019F08A8180628A838981882F90E0880FB0
:10058000991F880F991F880F991F9C012C5F3F4F5F
:10059000C901880F991F820F931F27E030E02C0FAD
:1005A0003D1F820F931F0196FC018081882319F063
:1005B0008A8180618A838981882F90E0880F991FC2
:1005C000880F991F880F991F9C012D5F3F4FC9010C
:1005D000880F991F820F931F27E030E02C0F3D1FDB
:1005E000820F931F0196FC018081882319F08A8174
:1005F00088608A838981882F90E0880F991F880FEF
:10060000991F880F991F9C012E5F3F4FC901880FCA
:10061000991F820F931F27E030E02C0F3D1F820FA0
:10062000931F0196FC018081882319F08A818460E0
:100630008A838981882F90E0880F991F880F991FDE
:10064000880F991F9C012F5F3F4FC901880F991F89
:10065000820F931F27E030E02C0F3D1F820F931F66
:100660000196FC018081882319F08A8182608A8347
:100670008981882F90E09C01220F331F220F331FA6
:10068000220F331FC901880F991F820F931F27E084
:1006900030E02C0F3D1F820F931F0196FC018081DB
:1006A000882319F08A8181608A838EE490E02A8110
:1006B000FC01208300008DE490E0FC018081882310
:1006C000D4F71A828981882F90E0880F991F880FAC
:1006D000991F880F991F9C01295F3F4FC901880FFF
:1006E000991F820F931F27E030E02C0F3D1F820FD0
:1006F000931F0296FC018081882319F08A8180680B
:100700008A838981882F90E0880F991F880F991F0D
:10071000880F991F9C012A5F3F4FC901880F991FBD
:10072000820F931F27E030E02C0F3D1F820F931F95
:100730000296FC018081882319F08A8180648A8373
:100740008981882F90E0880F991F880F991F880F43
:10075000991F9C012B5F3F4FC901880F991F820F82
:10076000931F27E030E02C0F3D1F820F931F02964E
:10077000FC018081882319F08A8180628A838981C3
:10078000882F90E0880F991F880F991F880F991F55
:100790009C012C5F3F4FC901880F991F820F931F47
:1007A00027E030E02C0F3D1F820F931F0296FC01C3
:1007B0008081882319F08A8180618A838981882FCA
:1007C00090E0880F991F880F991F880F991F9C012F
:1007D0002D5F3F4FC901880F991F820F931F27E09C
:1007E00030E02C0F3D1F820F931F0296FC01808189
:1007F000882319F08A8188608A838981882F90E014
:10080000880F991F880F991F880F991F9C012E5FD1
:100810003F4FC901880F991F820F931F27E030E0D7
:100820002C0F3D1F820F931F0296FC0180818823AD
:1008300019F08A8184608A838981882F90E0880FEB
:10084000991F880F991F880F991F9C012F5F3F4F99
:10085000C901880F991F820F931F27E030E02C0FEA
:100860003D1F820F931F0296FC018081882319F09F
:100870008A8182608A838981882F90E09C01220F7F
:10088000331F220F331F220F331FC901880F991FF7
:10089000820F931F27E030E02C0F3D1F820F931F24
:1008A0000296FC018081882319F08A8181608A8305
:1008B0008EE490E02A81FC01208300008DE490E02A
:1008C000FC0180818823D4F78CE490E0FC01108245
:1008D00085E290E025E230E0F90120812460FC010E
:1008E00020838981882351F48BE290E02BE230E071
:1008F000F90120812B7FFC0120835AC0898181303E
:1009000051F48BE290E02BE230E0F9012081277F67
:10091000FC0120834DC08981823051F48BE290E04C
:100920002BE230E0F90120812F7EFC01208340C0C2
:100930008981833051F48BE290E02BE230E0F901C1
:1009400020812F7DFC01208333C08981843051F4C4
:100950008BE290E02BE230E0F90120812F7BFC015B
:10096000208326C08981853051F48BE290E02BE210
:1009700030E0F90120812F77FC01208319C08981A3
:10098000863051F485E290E025E230E0F9012081E3
:100990002E7FFC0120830CC08981873049F485E2D9
:1009A00090E025E230E0F90120812F7EFC012083D8
:1009B00081E090E00E9467008981882351F48BE2F6
:1009C00090E02BE230E0F90120812460FC012083DB
:1009D0005AC08981813051F48BE290E02BE230E003
:1009E000F90120812860FC0120834DC0898182307B
:1009F00051F48BE290E02BE230E0F901208120619C
:100A0000FC01208340C08981833051F48BE290E067
:100A10002BE230E0F90120812062FC01208333C009
:100A20008981843051F48BE290E02BE230E0F901CF
:100A300020812064FC01208326C08981853051F407
:100A40008BE290E02BE230E0F90120812068FC018C
:100A5000208319C08981863051F485E290E025E237
:100A600030E0F90120812160FC0120830CC08981E4
:100A7000873049F485E290E025E230E0F9012081F9
:100A80002061FC01208385E290E025E230E0F9015D
:100A900020812B7FFC01208389818F5F898389815D
:100AA000883008F4FBCB0F900F90CF91DF91089521
:100AB000DF93CF93CDB7DEB70E949E000E94110650
:100AC000CF91DF910895DF93CF9300D000D000D075
:100AD000CDB7DEB71C8228E02D831E829E012F5FDA
:100AE0003F4FAE014C5F5F4F63E0FA0100804F5F04
:100AF0005F4FF90100822F5F3F4F61506623A9F7D6
:100B000040E0498130E03A8120E02B81842F932F0F
:100B1000A22FBC01CD0126960FB6F894DEBF0FBE02
:100B2000CDBFCF91DF910895DF93CF9300D000D058
:100B3000CDB7DEB79A8389837C836B838091400332
:100B4000282F81E090E0098002C0880F991F0A9445
:100B5000E2F78227809340030F900F900F900F9041
:100B6000CF91DF910895DF93CF93CDB7DEB781E0CA
:100B70008093000181E080931C0181E08093380123
:100B800081E08093510181E080936D0181E0809349
:100B9000890181E08093A20181E08093BE0181E020
:100BA0008093150181E080932B0181E080934101C6
:100BB00081E08093540181E080936A0181E0809319
:100BC000800181E08093930181E08093A9018DB73A
:100BD0009EB7815492400FB6F8949EBF0FBE8DBF52
:100BE0008DB79EB701969C0140E051E081E492E010
:100BF000FA0100804F5F5F4FF90100822F5F3F4F86
:100C000001970097A9F70E9447018DB79EB78F5BA8
:100C10009D4F0FB6F8949EBF0FBE8DBFCF91DF9151
:100C20000895DF93CF9300D0CDB7DEB71A82198233
:100C300026C029813A81C901880F991F820F931F0D
:100C400080509F4FFC01108229813A81C901880F91
:100C5000991F820F931F8F5F9E4FFC011082298185
:100C60003A81C901880F991F820F931F8E5F9E4F93
:100C7000FC01108289819A8101969A8389838981F6
:100C80009A8181349105ACF20F900F90CF91DF9152
:060C90000895F894FFCF67
:00000001FF
